{
  "_format": "hh-sol-artifact-1",
  "contractName": "WavePortal",
  "sourceName": "contracts/WavePortal.sol",
  "abi": [
    {
      "inputs": [],
      "stateMutability": "payable",
      "type": "constructor"
    },
    {
      "anonymous": false,
      "inputs": [
        {
          "indexed": true,
          "internalType": "address",
          "name": "from",
          "type": "address"
        },
        {
          "indexed": false,
          "internalType": "uint256",
          "name": "timestamp",
          "type": "uint256"
        },
        {
          "indexed": false,
          "internalType": "string",
          "name": "message",
          "type": "string"
        }
      ],
      "name": "newWave",
      "type": "event"
    },
    {
      "inputs": [],
      "name": "getAllWaves",
      "outputs": [
        {
          "components": [
            {
              "internalType": "address",
              "name": "sender",
              "type": "address"
            },
            {
              "internalType": "uint256",
              "name": "amount",
              "type": "uint256"
            },
            {
              "internalType": "uint256",
              "name": "timestamp",
              "type": "uint256"
            },
            {
              "internalType": "string",
              "name": "message",
              "type": "string"
            }
          ],
          "internalType": "struct WavePortal.Wave[]",
          "name": "",
          "type": "tuple[]"
        }
      ],
      "stateMutability": "view",
      "type": "function"
    },
    {
      "inputs": [],
      "name": "getTotalWaves",
      "outputs": [
        {
          "internalType": "uint256",
          "name": "",
          "type": "uint256"
        }
      ],
      "stateMutability": "view",
      "type": "function"
    },
    {
      "inputs": [
        {
          "internalType": "address",
          "name": "_address",
          "type": "address"
        }
      ],
      "name": "getWavesByAddress",
      "outputs": [
        {
          "components": [
            {
              "internalType": "address",
              "name": "sender",
              "type": "address"
            },
            {
              "internalType": "uint256",
              "name": "amount",
              "type": "uint256"
            },
            {
              "internalType": "uint256",
              "name": "timestamp",
              "type": "uint256"
            },
            {
              "internalType": "string",
              "name": "message",
              "type": "string"
            }
          ],
          "internalType": "struct WavePortal.Wave",
          "name": "",
          "type": "tuple"
        }
      ],
      "stateMutability": "view",
      "type": "function"
    },
    {
      "inputs": [
        {
          "internalType": "string",
          "name": "_message",
          "type": "string"
        }
      ],
      "name": "wave",
      "outputs": [],
      "stateMutability": "nonpayable",
      "type": "function"
    }
  ],
  "bytecode": "0x608060405260644442620000149190620001c1565b6200002091906200025e565b6003556200006e6040518060400160405280600d81526020017f48656c6c6f2c20776f726c6421000000000000000000000000000000000000008152506200007460201b620008691760201c565b62000305565b62000114816040516024016200008b919062000181565b6040516020818303038152906040527f41304fac000000000000000000000000000000000000000000000000000000007bffffffffffffffffffffffffffffffffffffffffffffffffffffffff19166020820180517bffffffffffffffffffffffffffffffffffffffffffffffffffffffff83818316178352505050506200011760201b60201c565b50565b60008151905060006a636f6e736f6c652e6c6f679050602083016000808483855afa5050505050565b60006200014d82620001a5565b620001598185620001b0565b93506200016b81856020860162000228565b6200017681620002f4565b840191505092915050565b600060208201905081810360008301526200019d818462000140565b905092915050565b600081519050919050565b600082825260208201905092915050565b6000620001ce826200021e565b9150620001db836200021e565b9250827fffffffffffffffffffffffffffffffffffffffffffffffffffffffffffffffff0382111562000213576200021262000296565b5b828201905092915050565b6000819050919050565b60005b83811015620002485780820151818401526020810190506200022b565b8381111562000258576000848401525b50505050565b60006200026b826200021e565b915062000278836200021e565b9250826200028b576200028a620002c5565b5b828206905092915050565b7f4e487b7100000000000000000000000000000000000000000000000000000000600052601160045260246000fd5b7f4e487b7100000000000000000000000000000000000000000000000000000000600052601260045260246000fd5b6000601f19601f8301169050919050565b61152f80620003156000396000f3fe608060405234801561001057600080fd5b506004361061004c5760003560e01c8063449d46c0146100515780636dfad43e1461006d5780639a2cdc081461009d578063bd43a908146100bb575b600080fd5b61006b60048036038101906100669190610c89565b6100d9565b005b61008760048036038101906100829190610c60565b61056e565b604051610094919061106e565b60405180910390f35b6100a56106c3565b6040516100b29190611090565b60405180910390f35b6100c361070e565b6040516100d09190610f45565b60405180910390f35b6000808154809291906100eb906112d9565b9190505550600160003373ffffffffffffffffffffffffffffffffffffffff1673ffffffffffffffffffffffffffffffffffffffff1681526020019081526020016000206001016000815480929190610143906112d9565b919050555042600160003373ffffffffffffffffffffffffffffffffffffffff1673ffffffffffffffffffffffffffffffffffffffff1681526020019081526020016000206002018190555080600160003373ffffffffffffffffffffffffffffffffffffffff1673ffffffffffffffffffffffffffffffffffffffff16815260200190815260200160002060030190805190602001906101e5929190610b02565b506102096040518060600160405280602181526020016114d9602191393383610902565b600260405180608001604052803373ffffffffffffffffffffffffffffffffffffffff168152602001600160003373ffffffffffffffffffffffffffffffffffffffff1673ffffffffffffffffffffffffffffffffffffffff168152602001908152602001600020600101548152602001600160003373ffffffffffffffffffffffffffffffffffffffff1673ffffffffffffffffffffffffffffffffffffffff16815260200190815260200160002060020154815260200183815250908060018154018082558091505060019003906000526020600020906004020160009091909190915060008201518160000160006101000a81548173ffffffffffffffffffffffffffffffffffffffff021916908373ffffffffffffffffffffffffffffffffffffffff16021790555060208201518160010155604082015181600201556060820151816003019080519060200190610366929190610b02565b5050503373ffffffffffffffffffffffffffffffffffffffff167f827fc0b1433d32e3710239670a4c525416496a64d64f2374a5e4ea595c0738c642836040516103b19291906110ab565b60405180910390a2606460035442446103ca91906111a2565b6103d491906111a2565b6103de9190611322565b6003819055506104256040518060400160405280601681526020017f52616e646f6d20232067656e6572617465643a202564000000000000000000008152506003546109a1565b60326003541161056b5761046e6040518060400160405280600781526020017f257320776f6e210000000000000000000000000000000000000000000000000081525033610a3d565b6000655af3107a40009050478111156104bc576040517f08c379a00000000000000000000000000000000000000000000000000000000081526004016104b39061102e565b60405180910390fd5b60003373ffffffffffffffffffffffffffffffffffffffff16826040516104e290610f30565b60006040518083038185875af1925050503d806000811461051f576040519150601f19603f3d011682016040523d82523d6000602084013e610524565b606091505b5050905080610568576040517f08c379a000000000000000000000000000000000000000000000000000000000815260040161055f9061104e565b60405180910390fd5b50505b50565b610576610b88565b600160008373ffffffffffffffffffffffffffffffffffffffff1673ffffffffffffffffffffffffffffffffffffffff1681526020019081526020016000206040518060800160405290816000820160009054906101000a900473ffffffffffffffffffffffffffffffffffffffff1673ffffffffffffffffffffffffffffffffffffffff1673ffffffffffffffffffffffffffffffffffffffff168152602001600182015481526020016002820154815260200160038201805461063a90611276565b80601f016020809104026020016040519081016040528092919081815260200182805461066690611276565b80156106b35780601f10610688576101008083540402835291602001916106b3565b820191906000526020600020905b81548152906001019060200180831161069657829003601f168201915b5050505050815250509050919050565b60006107066040518060400160405280601181526020017f576520686176652025642077617665732e0000000000000000000000000000008152506000546109a1565b600054905090565b60606002805480602002602001604051908101604052809291908181526020016000905b8282101561086057838290600052602060002090600402016040518060800160405290816000820160009054906101000a900473ffffffffffffffffffffffffffffffffffffffff1673ffffffffffffffffffffffffffffffffffffffff1673ffffffffffffffffffffffffffffffffffffffff16815260200160018201548152602001600282015481526020016003820180546107cf90611276565b80601f01602080910402602001604051908101604052809291908181526020018280546107fb90611276565b80156108485780601f1061081d57610100808354040283529160200191610848565b820191906000526020600020905b81548152906001019060200180831161082b57829003601f168201915b50505050508152505081526020019060010190610732565b50505050905090565b6108ff8160405160240161087d9190610f67565b6040516020818303038152906040527f41304fac000000000000000000000000000000000000000000000000000000007bffffffffffffffffffffffffffffffffffffffffffffffffffffffff19166020820180517bffffffffffffffffffffffffffffffffffffffffffffffffffffffff8381831617835250505050610ad9565b50565b61099c83838360405160240161091a93929190610fb9565b6040516020818303038152906040527fe0e9ad4f000000000000000000000000000000000000000000000000000000007bffffffffffffffffffffffffffffffffffffffffffffffffffffffff19166020820180517bffffffffffffffffffffffffffffffffffffffffffffffffffffffff8381831617835250505050610ad9565b505050565b610a3982826040516024016109b7929190610ffe565b6040516020818303038152906040527f9710a9d0000000000000000000000000000000000000000000000000000000007bffffffffffffffffffffffffffffffffffffffffffffffffffffffff19166020820180517bffffffffffffffffffffffffffffffffffffffffffffffffffffffff8381831617835250505050610ad9565b5050565b610ad58282604051602401610a53929190610f89565b6040516020818303038152906040527f319af333000000000000000000000000000000000000000000000000000000007bffffffffffffffffffffffffffffffffffffffffffffffffffffffff19166020820180517bffffffffffffffffffffffffffffffffffffffffffffffffffffffff8381831617835250505050610ad9565b5050565b60008151905060006a636f6e736f6c652e6c6f679050602083016000808483855afa5050505050565b828054610b0e90611276565b90600052602060002090601f016020900481019282610b305760008555610b77565b82601f10610b4957805160ff1916838001178555610b77565b82800160010185558215610b77579182015b82811115610b76578251825591602001919060010190610b5b565b5b509050610b849190610bc6565b5090565b6040518060800160405280600073ffffffffffffffffffffffffffffffffffffffff1681526020016000815260200160008152602001606081525090565b5b80821115610bdf576000816000905550600101610bc7565b5090565b6000610bf6610bf184611100565b6110db565b905082815260208101848484011115610c0e57600080fd5b610c19848285611234565b509392505050565b600081359050610c30816114c1565b92915050565b600082601f830112610c4757600080fd5b8135610c57848260208601610be3565b91505092915050565b600060208284031215610c7257600080fd5b6000610c8084828501610c21565b91505092915050565b600060208284031215610c9b57600080fd5b600082013567ffffffffffffffff811115610cb557600080fd5b610cc184828501610c36565b91505092915050565b6000610cd68383610e4c565b905092915050565b610ce7816111f8565b82525050565b610cf6816111f8565b82525050565b6000610d0782611141565b610d118185611164565b935083602082028501610d2385611131565b8060005b85811015610d5f5784840389528151610d408582610cca565b9450610d4b83611157565b925060208a01995050600181019050610d27565b50829750879550505050505092915050565b6000610d7c8261114c565b610d868185611180565b9350610d96818560208601611243565b610d9f8161140f565b840191505092915050565b6000610db58261114c565b610dbf8185611191565b9350610dcf818560208601611243565b610dd88161140f565b840191505092915050565b6000610df0603483611191565b9150610dfb82611420565b604082019050919050565b6000610e13602783611191565b9150610e1e8261146f565b604082019050919050565b6000610e36600083611175565b9150610e41826114be565b600082019050919050565b6000608083016000830151610e646000860182610cde565b506020830151610e776020860182610f12565b506040830151610e8a6040860182610f12565b5060608301518482036060860152610ea28282610d71565b9150508091505092915050565b6000608083016000830151610ec76000860182610cde565b506020830151610eda6020860182610f12565b506040830151610eed6040860182610f12565b5060608301518482036060860152610f058282610d71565b9150508091505092915050565b610f1b8161122a565b82525050565b610f2a8161122a565b82525050565b6000610f3b82610e29565b9150819050919050565b60006020820190508181036000830152610f5f8184610cfc565b905092915050565b60006020820190508181036000830152610f818184610daa565b905092915050565b60006040820190508181036000830152610fa38185610daa565b9050610fb26020830184610ced565b9392505050565b60006060820190508181036000830152610fd38186610daa565b9050610fe26020830185610ced565b8181036040830152610ff48184610daa565b9050949350505050565b600060408201905081810360008301526110188185610daa565b90506110276020830184610f21565b9392505050565b6000602082019050818103600083015261104781610de3565b9050919050565b6000602082019050818103600083015261106781610e06565b9050919050565b600060208201905081810360008301526110888184610eaf565b905092915050565b60006020820190506110a56000830184610f21565b92915050565b60006040820190506110c06000830185610f21565b81810360208301526110d28184610daa565b90509392505050565b60006110e56110f6565b90506110f182826112a8565b919050565b6000604051905090565b600067ffffffffffffffff82111561111b5761111a6113e0565b5b6111248261140f565b9050602081019050919050565b6000819050602082019050919050565b600081519050919050565b600081519050919050565b6000602082019050919050565b600082825260208201905092915050565b600081905092915050565b600082825260208201905092915050565b600082825260208201905092915050565b60006111ad8261122a565b91506111b88361122a565b9250827fffffffffffffffffffffffffffffffffffffffffffffffffffffffffffffffff038211156111ed576111ec611353565b5b828201905092915050565b60006112038261120a565b9050919050565b600073ffffffffffffffffffffffffffffffffffffffff82169050919050565b6000819050919050565b82818337600083830152505050565b60005b83811015611261578082015181840152602081019050611246565b83811115611270576000848401525b50505050565b6000600282049050600182168061128e57607f821691505b602082108114156112a2576112a16113b1565b5b50919050565b6112b18261140f565b810181811067ffffffffffffffff821117156112d0576112cf6113e0565b5b80604052505050565b60006112e48261122a565b91507fffffffffffffffffffffffffffffffffffffffffffffffffffffffffffffffff82141561131757611316611353565b5b600182019050919050565b600061132d8261122a565b91506113388361122a565b92508261134857611347611382565b5b828206905092915050565b7f4e487b7100000000000000000000000000000000000000000000000000000000600052601160045260246000fd5b7f4e487b7100000000000000000000000000000000000000000000000000000000600052601260045260246000fd5b7f4e487b7100000000000000000000000000000000000000000000000000000000600052602260045260246000fd5b7f4e487b7100000000000000000000000000000000000000000000000000000000600052604160045260246000fd5b6000601f19601f8301169050919050565b7f547279696e6720746f207769746864726177206d6f7265206d6f6e657920746860008201527f616e2074686520636f6e7472616374206861732e000000000000000000000000602082015250565b7f4661696c656420746f207769746864726177206d6f6e65792066726f6d20636f60008201527f6e74726163742e00000000000000000000000000000000000000000000000000602082015250565b50565b6114ca816111f8565b81146114d557600080fd5b5056fe25732068617320776176656420617420796f752e204d657373616765203a202573a2646970667358221220a4d25ec116be937636749d9c8f84009890d1f239b0415ddfdc9911869d38714f64736f6c63430008040033",
  "linkReferences": {},
  "deployedLinkReferences": {}
}